{
  "contractName": "FundraisingDapp",
  "abi": [
    {
      "anonymous": false,
      "inputs": [
        {
          "indexed": false,
          "internalType": "uint256",
          "name": "id",
          "type": "uint256"
        },
        {
          "indexed": false,
          "internalType": "address payable",
          "name": "recipient",
          "type": "address"
        },
        {
          "indexed": false,
          "internalType": "string",
          "name": "name",
          "type": "string"
        },
        {
          "indexed": false,
          "internalType": "string",
          "name": "description",
          "type": "string"
        },
        {
          "indexed": false,
          "internalType": "string",
          "name": "cause",
          "type": "string"
        },
        {
          "indexed": false,
          "internalType": "uint256",
          "name": "fundingGoal",
          "type": "uint256"
        },
        {
          "indexed": false,
          "internalType": "uint256",
          "name": "raisedFunds",
          "type": "uint256"
        },
        {
          "indexed": false,
          "internalType": "bool",
          "name": "completed",
          "type": "bool"
        }
      ],
      "name": "ProposalAdded",
      "type": "event"
    },
    {
      "anonymous": false,
      "inputs": [
        {
          "indexed": false,
          "internalType": "uint256",
          "name": "id",
          "type": "uint256"
        },
        {
          "indexed": false,
          "internalType": "address payable",
          "name": "recipient",
          "type": "address"
        },
        {
          "indexed": false,
          "internalType": "address",
          "name": "donor",
          "type": "address"
        },
        {
          "indexed": false,
          "internalType": "string",
          "name": "name",
          "type": "string"
        },
        {
          "indexed": false,
          "internalType": "string",
          "name": "description",
          "type": "string"
        },
        {
          "indexed": false,
          "internalType": "string",
          "name": "cause",
          "type": "string"
        },
        {
          "indexed": false,
          "internalType": "uint256",
          "name": "fundingGoal",
          "type": "uint256"
        },
        {
          "indexed": false,
          "internalType": "uint256",
          "name": "raisedFunds",
          "type": "uint256"
        },
        {
          "indexed": false,
          "internalType": "bool",
          "name": "completed",
          "type": "bool"
        }
      ],
      "name": "ProposalEnded",
      "type": "event"
    },
    {
      "inputs": [],
      "name": "campaignCount",
      "outputs": [
        {
          "internalType": "uint256",
          "name": "",
          "type": "uint256"
        }
      ],
      "stateMutability": "view",
      "type": "function",
      "constant": true
    },
    {
      "inputs": [
        {
          "internalType": "uint256",
          "name": "",
          "type": "uint256"
        }
      ],
      "name": "campaigns",
      "outputs": [
        {
          "internalType": "uint256",
          "name": "id",
          "type": "uint256"
        },
        {
          "internalType": "address payable",
          "name": "recipient",
          "type": "address"
        },
        {
          "internalType": "string",
          "name": "name",
          "type": "string"
        },
        {
          "internalType": "string",
          "name": "description",
          "type": "string"
        },
        {
          "internalType": "string",
          "name": "cause",
          "type": "string"
        },
        {
          "internalType": "uint256",
          "name": "fundingGoal",
          "type": "uint256"
        },
        {
          "internalType": "uint256",
          "name": "raisedFunds",
          "type": "uint256"
        },
        {
          "internalType": "bool",
          "name": "completed",
          "type": "bool"
        }
      ],
      "stateMutability": "view",
      "type": "function",
      "constant": true
    },
    {
      "inputs": [
        {
          "internalType": "string",
          "name": "_name",
          "type": "string"
        },
        {
          "internalType": "string",
          "name": "_description",
          "type": "string"
        },
        {
          "internalType": "string",
          "name": "_cause",
          "type": "string"
        },
        {
          "internalType": "uint256",
          "name": "_fundingGoal",
          "type": "uint256"
        }
      ],
      "name": "createCampaign",
      "outputs": [],
      "stateMutability": "nonpayable",
      "type": "function"
    },
    {
      "inputs": [
        {
          "internalType": "uint256",
          "name": "_id",
          "type": "uint256"
        }
      ],
      "name": "donate",
      "outputs": [],
      "stateMutability": "payable",
      "type": "function",
      "payable": true
    }
  ],
  "bytecode": "0x60806040526000805534801561001457600080fd5b50611237806100246000396000f3fe60806040526004361061003f5760003560e01c8063141961bc146100445780634a15ef92146102235780637274e30d14610423578063f14faf6f1461044e575b600080fd5b34801561005057600080fd5b5061007d6004803603602081101561006757600080fd5b810190808035906020019092919050505061047c565b604051808981526020018873ffffffffffffffffffffffffffffffffffffffff1673ffffffffffffffffffffffffffffffffffffffff1681526020018060200180602001806020018781526020018681526020018515151515815260200184810384528a818151815260200191508051906020019080838360005b838110156101135780820151818401526020810190506100f8565b50505050905090810190601f1680156101405780820380516001836020036101000a031916815260200191505b50848103835289818151815260200191508051906020019080838360005b8381101561017957808201518184015260208101905061015e565b50505050905090810190601f1680156101a65780820380516001836020036101000a031916815260200191505b50848103825288818151815260200191508051906020019080838360005b838110156101df5780820151818401526020810190506101c4565b50505050905090810190601f16801561020c5780820380516001836020036101000a031916815260200191505b509b50505050505050505050505060405180910390f35b34801561022f57600080fd5b506104216004803603608081101561024657600080fd5b810190808035906020019064010000000081111561026357600080fd5b82018360208201111561027557600080fd5b8035906020019184600183028401116401000000008311171561029757600080fd5b91908080601f016020809104026020016040519081016040528093929190818152602001838380828437600081840152601f19601f820116905080830192505050505050509192919290803590602001906401000000008111156102fa57600080fd5b82018360208201111561030c57600080fd5b8035906020019184600183028401116401000000008311171561032e57600080fd5b91908080601f016020809104026020016040519081016040528093929190818152602001838380828437600081840152601f19601f8201169050808301925050505050505091929192908035906020019064010000000081111561039157600080fd5b8201836020820111156103a357600080fd5b803590602001918460018302840111640100000000831117156103c557600080fd5b91908080601f016020809104026020016040519081016040528093929190818152602001838380828437600081840152601f19601f820116905080830192505050505050509192919290803590602001909291905050506106b9565b005b34801561042f57600080fd5b50610438610a06565b6040518082815260200191505060405180910390f35b61047a6004803603602081101561046457600080fd5b8101908080359060200190929190505050610a0c565b005b60016020528060005260406000206000915090508060000154908060010160009054906101000a900473ffffffffffffffffffffffffffffffffffffffff1690806002018054600181600116156101000203166002900480601f0160208091040260200160405190810160405280929190818152602001828054600181600116156101000203166002900480156105545780601f1061052957610100808354040283529160200191610554565b820191906000526020600020905b81548152906001019060200180831161053757829003601f168201915b505050505090806003018054600181600116156101000203166002900480601f0160208091040260200160405190810160405280929190818152602001828054600181600116156101000203166002900480156105f25780601f106105c7576101008083540402835291602001916105f2565b820191906000526020600020905b8154815290600101906020018083116105d557829003601f168201915b505050505090806004018054600181600116156101000203166002900480601f0160208091040260200160405190810160405280929190818152602001828054600181600116156101000203166002900480156106905780601f1061066557610100808354040283529160200191610690565b820191906000526020600020905b81548152906001019060200180831161067357829003601f168201915b5050505050908060050154908060060154908060070160009054906101000a900460ff16905088565b60008451116106c757600080fd5b60008351116106d557600080fd5b600080815480929190600101919050555060405180610100016040528060005481526020013373ffffffffffffffffffffffffffffffffffffffff168152602001858152602001848152602001838152602001828152602001600081526020016000151581525060016000805481526020019081526020016000206000820151816000015560208201518160010160006101000a81548173ffffffffffffffffffffffffffffffffffffffff021916908373ffffffffffffffffffffffffffffffffffffffff16021790555060408201518160020190805190602001906107bd9291906110d9565b5060608201518160030190805190602001906107da9291906110d9565b5060808201518160040190805190602001906107f79291906110d9565b5060a0820151816005015560c0820151816006015560e08201518160070160006101000a81548160ff0219169083151502179055509050507f72dad8fbc7923ed88b9e44841954510f3358afb4196a158c79666b709c6639326000543386868686600080604051808981526020018873ffffffffffffffffffffffffffffffffffffffff1673ffffffffffffffffffffffffffffffffffffffff1681526020018060200180602001806020018781526020018681526020018515151515815260200184810384528a818151815260200191508051906020019080838360005b838110156108f15780820151818401526020810190506108d6565b50505050905090810190601f16801561091e5780820380516001836020036101000a031916815260200191505b50848103835289818151815260200191508051906020019080838360005b8381101561095757808201518184015260208101905061093c565b50505050905090810190601f1680156109845780820380516001836020036101000a031916815260200191505b50848103825288818151815260200191508051906020019080838360005b838110156109bd5780820151818401526020810190506109a2565b50505050905090810190601f1680156109ea5780820380516001836020036101000a031916815260200191505b509b50505050505050505050505060405180910390a150505050565b60005481565b610a14611159565b6001600083815260200190815260200160002060405180610100016040529081600082015481526020016001820160009054906101000a900473ffffffffffffffffffffffffffffffffffffffff1673ffffffffffffffffffffffffffffffffffffffff1673ffffffffffffffffffffffffffffffffffffffff168152602001600282018054600181600116156101000203166002900480601f016020809104026020016040519081016040528092919081815260200182805460018160011615610100020316600290048015610b2c5780601f10610b0157610100808354040283529160200191610b2c565b820191906000526020600020905b815481529060010190602001808311610b0f57829003601f168201915b50505050508152602001600382018054600181600116156101000203166002900480601f016020809104026020016040519081016040528092919081815260200182805460018160011615610100020316600290048015610bce5780601f10610ba357610100808354040283529160200191610bce565b820191906000526020600020905b815481529060010190602001808311610bb157829003601f168201915b50505050508152602001600482018054600181600116156101000203166002900480601f016020809104026020016040519081016040528092919081815260200182805460018160011615610100020316600290048015610c705780601f10610c4557610100808354040283529160200191610c70565b820191906000526020600020905b815481529060010190602001808311610c5357829003601f168201915b5050505050815260200160058201548152602001600682015481526020016007820160009054906101000a900460ff161515151581525050905060008160000151118015610cc45750600054816000015111155b610ccd57600080fd5b806020015173ffffffffffffffffffffffffffffffffffffffff163373ffffffffffffffffffffffffffffffffffffffff161415610d56576040517f08c379a00000000000000000000000000000000000000000000000000000000081526004018080602001828103825260268152602001806111dc6026913960400191505060405180910390fd5b8060e0015115610d6557600080fd5b806020015173ffffffffffffffffffffffffffffffffffffffff166108fc349081150290604051600060405180830381858888f19350505050158015610daf573d6000803e3d6000fd5b50348160c001818152505060018160e001901515908115158152505080600160008481526020019081526020016000206000820151816000015560208201518160010160006101000a81548173ffffffffffffffffffffffffffffffffffffffff021916908373ffffffffffffffffffffffffffffffffffffffff1602179055506040820151816002019080519060200190610e4c9291906110d9565b506060820151816003019080519060200190610e699291906110d9565b506080820151816004019080519060200190610e869291906110d9565b5060a0820151816005015560c0820151816006015560e08201518160070160006101000a81548160ff0219169083151502179055509050507f1d9368b5e3b11d7291e6ffb7970c2a52babfd852b3adc2874d1e09cc8aa5baa9828260200151338460400151856060015186608001518760a00151346001604051808a81526020018973ffffffffffffffffffffffffffffffffffffffff1673ffffffffffffffffffffffffffffffffffffffff1681526020018873ffffffffffffffffffffffffffffffffffffffff1673ffffffffffffffffffffffffffffffffffffffff1681526020018060200180602001806020018781526020018681526020018515151515815260200184810384528a818151815260200191508051906020019080838360005b83811015610fc5578082015181840152602081019050610faa565b50505050905090810190601f168015610ff25780820380516001836020036101000a031916815260200191505b50848103835289818151815260200191508051906020019080838360005b8381101561102b578082015181840152602081019050611010565b50505050905090810190601f1680156110585780820380516001836020036101000a031916815260200191505b50848103825288818151815260200191508051906020019080838360005b83811015611091578082015181840152602081019050611076565b50505050905090810190601f1680156110be5780820380516001836020036101000a031916815260200191505b509c5050505050505050505050505060405180910390a15050565b828054600181600116156101000203166002900490600052602060002090601f016020900481019282601f1061111a57805160ff1916838001178555611148565b82800160010185558215611148579182015b8281111561114757825182559160200191906001019061112c565b5b50905061115591906111b6565b5090565b60405180610100016040528060008152602001600073ffffffffffffffffffffffffffffffffffffffff16815260200160608152602001606081526020016060815260200160008152602001600081526020016000151581525090565b6111d891905b808211156111d45760008160009055506001016111bc565b5090565b9056fe5468652073616d65206164647265737320686f6c646572732063616e6e6f7420646f6e617465a264697066735822122025dc0ed943bc6ab4a1a7dc913fdd1d8e695f5e9ed76f4b88bd9f1db767d38af164736f6c63430006000033",
  "source": "pragma solidity ^0.6.0;\r\n\r\ncontract FundraisingDapp {\r\n    // string public contractName;\r\n    // uint256 public fundingPool;\r\n\r\n    // constructor() public {\r\n    //     contractName = \"Fundraising Dapp\";\r\n    // }\r\n\r\n    struct Campaign {\r\n        uint256 id;\r\n        address payable recipient;                      //address where amount would get transfered\r\n        string name;\r\n        string description;\r\n        string cause;\r\n        // bytes32 proposalHash;                            //brief about Organisation\r\n        uint256 fundingGoal;                                //total amount for raisingthe fund\r\n        uint256 raisedFunds;                             //funds which have been raised for the proposal\r\n        // uint256 startTime;\r\n        // uint256 endTime;                    //time till the fund will be open for donating\r\n        bool completed;    \r\n    }\r\n\r\n    uint256 public campaignCount = 0;\r\n    mapping (uint256 => Campaign) public campaigns; \r\n\r\n    event ProposalAdded(uint256 id, address payable recipient, string name, string description, string cause, uint256 fundingGoal, uint256 raisedFunds ,bool completed);\r\n    event ProposalEnded(uint256 id, address payable recipient, address donor,string name, string description, string cause, uint256 fundingGoal, uint256 raisedFunds ,bool completed);\r\n\r\n\r\n    function createCampaign(string memory _name, string memory _description, string memory _cause, uint256 _fundingGoal) public  {\r\n        require(bytes(_name).length > 0);\r\n        require(bytes(_description).length > 0);\r\n        // require(_fundingGoal>0);\r\n\r\n        campaignCount++;\r\n        \r\n        campaigns[campaignCount] = Campaign(campaignCount, msg.sender, _name,_description,_cause, _fundingGoal, 0, false);\r\n        \r\n        // cam.proposalHash = sha256(abi.encodePacked(msg.sender, _description, _cause, _endTime));\r\n        \r\n        emit ProposalAdded(campaignCount, msg.sender, _name,_description,_cause, _fundingGoal, 0, false);\r\n    }\r\n\r\n    function donate(uint256 _id) public payable\r\n    {\r\n        Campaign memory _campaign = campaigns[_id];\r\n        // address donor = msg.sender;\r\n\r\n        require(_campaign.id >0 && _campaign.id <= campaignCount);\r\n        require(msg.sender !=_campaign.recipient ,\"The same address holders cannot donate\");\r\n        require(!_campaign.completed);\r\n        // require(currentTime < cam.endTime, \"The proposal should be active\");\r\n        // require(cam.raisedFunds < cam.fundingGoal, \"The campaign has already raised enough funds\");\r\n        \r\n        _campaign.recipient.transfer(msg.value);\r\n        _campaign.raisedFunds = msg.value;\r\n        _campaign.completed = true;\r\n\r\n        campaigns[_id] = _campaign;\r\n        // cam.raisedFunds += msg.value;         //amount would be added to the proposal funds\r\n        // emit Donated(_proposalAddress, msg.sender, msg.value);\r\n        // if(cam.raisedFunds >= cam.fundingGoal || cam.endTime <= currentTime)\r\n        // {\r\n            emit ProposalEnded(_id, _campaign.recipient, msg.sender, _campaign.name,_campaign.description,_campaign.cause, _campaign.fundingGoal, msg.value, true);\r\n        // }\r\n\r\n        \r\n        // emit TotalRaisedFunds(charityPoolDonations);\r\n    }\r\n\r\n}",
  "sourcePath": "D:/NITASHA GUPTA/Projects/eth-fundraising-dapp-v1/src/contracts/FundraisingDapp.sol",
  "compiler": {
    "name": "solc",
    "version": "0.6.0+commit.26b70077.Emscripten.clang"
  },
  "schemaVersion": "3.2.3",
  "updatedAt": "2020-10-02T17:22:23.683Z",
  "networkType": "ethereum",
  "devdoc": {
    "methods": {}
  },
  "userdoc": {
    "methods": {}
  }
}